:020000040000FA
:100000000C9463000C948B000C948B000C941C03D8
:100010000C941C030C941C030C948B000C948B000C
:100020000C948B000C948B000C948B000C948B0024
:100030000C948B000C948B000C948B000C948B0014
:100040000C947A020C948B000C94EA020C94C40277
:100050000C948B000C948B000C948B000C948B00F4
:100060000C948B000C948B000000000024002700EF
:100070002A0000000008000201000003040700003D
:1000800000000000000000000000230026002900FE
:1000900000000000250028002B00040404040404D0
:1000A0000404020202020202030303030303010227
:1000B00004081020408001020408102001020408F6
:1000C0001020E003F80511241FBECFEFD8E0DEBFFB
:1000D000CDBF22E0ACE2B1E001C01D92AF33B20768
:1000E000E1F711E0A0E0B1E0E0EBF0E102C0059043
:1000F0000D92AC32B107D9F710E0C2E6D0E004C0EF
:100100002197FE010E945306C136D107C9F70E940C
:10011000CF040C944B080C940000CF93DF9390E035
:10012000FC01E255FF4F249186569F4FFC018491BC
:100130008823D1F090E0880F991FFC01E859FF4F08
:10014000A591B491FC01E057FF4FC591D491611185
:100150000EC09FB7F8948C91E22FE0958E238C937C
:100160002881E223E8839FBFDF91CF9108958FB765
:10017000F894EC91E22BEC938FBFF6CFAF92BF9245
:10018000CF92DF92EF92FF920F931F93CF93DF9363
:100190006C017B018B01040F151FEB015E01AE1892
:1001A000BF08C017D10759F06991D601ED91FC91B4
:1001B0000190F081E02DC6010995892B79F7C501E1
:1001C000DF91CF911F910F91FF90EF90DF90CF9033
:1001D000BF90AF900895FC01538D448D252F30E0E2
:1001E000842F90E0821B930B541710F0CF96089544
:1001F00001970895FC01918D828D981761F0A28D71
:10020000AE0FBF2FB11D5D968C91928D9F5F9F7336
:10021000928F90E008958FEF9FEF0895FC01918DEC
:10022000828D981731F0828DE80FF11D858D90E059
:1002300008958FEF9FEF0895FC01918D228D892FF6
:1002400090E0805C9F4F821B91098F7399270895DE
:1002500089E791E00E941C0121E0892B09F420E04C
:10026000822F089580E090E0892B29F00E942801D8
:1002700081110C9400000895FC01A48DA80FB92FE2
:10028000B11DA35ABF4F2C91848D90E001968F73BE
:100290009927848FA689B7892C93A089B1898C91DD
:1002A000837080648C93938D848D981306C002882C
:1002B000F389E02D80818F7D80830895EF92FF92F6
:1002C0000F931F93CF93DF93EC0181E0888F9B8D79
:1002D0008C8D98131AC0E889F989808185FF15C033
:1002E0009FB7F894EE89FF896083E889F989808156
:1002F0008370806480839FBF81E090E0DF91CF9125
:100300001F910F91FF90EF900895F62E0B8D10E046
:100310000F5F1F4F0F731127E02E8C8D8E110CC0B5
:100320000FB607FCFACFE889F989808185FFF5CF00
:10033000CE010E943C01F1CFEB8DEC0FFD2FF11DA2
:10034000E35AFF4FF0829FB7F8940B8FEA89FB893D
:1003500080818062CFCFCF93DF93EC01888D88239B
:10036000B9F0AA89BB89E889F9898C9185FD03C018
:10037000808186FD0DC00FB607FCF7CF8C9185FFFD
:10038000F2CF808185FFEDCFCE010E943C01E9CF05
:10039000DF91CF91089520916E0130916F01281760
:1003A000390771F490916C0180916D01981741F0BB
:1003B000E0916C01F0E0E45DFE4F808190E00895F3
:1003C0008FEF9FEF08950895EF92FF920F931F9381
:1003D000CF93DF93DC015C96ED90FC905D97E11488
:1003E000F10479F481E090E013969C938E93129738
:1003F00090E080E0DF91CF911F910F91FF90EF90FF
:1004000008955196ED91FC91529750968C9150978A
:10041000982F90950FB75E962C915E97122F1270C1
:1004200021FD6095F8942081112319F1282B208358
:10043000E7012197F1F728E0462F50E0308160FF77
:100440001AC0382B3083E7012197F1F7BA0175956F
:100450006795215089F7112381F08081892380835A
:100460000FBF5C968D919C910197F1F781E090E030
:10047000C1CF2923DCCF3923E5CF9081892BEFCF62
:1004800020916E0130916F012817390761F4809136
:100490006D0120916C0190E0805C9F4F821B91095F
:1004A0008F739927089590E080E0089520916E0160
:1004B00030916F0128173907B9F490916C01809140
:1004C0006D01981789F0E0916C01F0E0E45DFE4F5A
:1004D000808120916C0130E02F5F3F4F2F733327D5
:1004E00020936C0190E008958FEF9FEF089590E0C6
:1004F00080E008951F920F920FB60F9211242F9350
:100500003F938F939F93AF93BF9380917501909189
:100510007601A0917701B09178013091740123E0C8
:10052000230F2D3758F50196A11DB11D209374019D
:100530008093750190937601A0937701B093780131
:100540008091700190917101A0917201B09173013D
:100550000196A11DB11D8093700190937101A0932C
:100560007201B0937301BF91AF919F918F913F91B1
:100570002F910F900FBE0F901F90189526E8230F14
:100580000296A11DB11DD2CF1F920F920FB60F92EE
:1005900011242F933F934F935F936F937F938F9388
:1005A0009F93AF93BF93EF93FF9389E791E00E94EE
:1005B0003C01FF91EF91BF91AF919F918F917F91FE
:1005C0006F915F914F913F912F910F900FBE0F90C0
:1005D0001F9018951F920F920FB60F9211242F9310
:1005E0008F939F93EF93FF93E0918901F0918A019C
:1005F0008081E0918F01F091900182FD1BC090817C
:10060000809192018F5F8F7320919301821741F047
:10061000E0919201F0E0E758FE4F958F80939201B0
:10062000FF91EF919F918F912F910F900FBE0F909F
:100630001F9018958081F4CF1F920F920FB60F92E2
:1006400011242F933F934F935F936F937F938F93D7
:100650009F93AF93BF93EF93FF93E0916E01F0915F
:100660006F01309749F0A685B7858585968D91FFF6
:1006700014C09C918923A1F4FF91EF91BF91AF9198
:100680009F918F917F916F915F914F913F912F91AA
:100690000F900FBE0F901F9018959C91892361F7C2
:1006A000A389B4899C918589809589238C938689B7
:1006B00097890197F1F7608D718DA685B78555856E
:1006C00038E020E0CB010197F1F7822F90E095957B
:1006D0008795282F4C91452309F02068315091F7D8
:1006E000868D81FD209580916D0190E001968F733C
:1006F000992730916C01381799F0A0916D01B0E005
:10070000A45DBE4F2C9380936D01828D938D0197D4
:10071000F1F7A389B4898C919589892B8C93ACCFFF
:10072000868D8160868FF1CF90E0FC01EE58FF4FFF
:100730002491FC01E255FF4F3491FC01E656FF4F36
:10074000E491EE23C9F0222339F0233001F1A8F41B
:10075000213019F1223029F1F0E0EE0FFF1FE057B0
:10076000FF4FA591B4918FB7F894EC91611126C019
:1007700030953E233C938FBF08952730A9F0283051
:10078000C9F0243049F7809180008F7D03C08091AB
:1007900080008F7780938000DFCF84B58F7784BD12
:1007A000DBCF84B58F7DFBCF8091B0008F778093B6
:1007B000B000D2CF8091B0008F7DF9CF3E2BDACF41
:1007C00010927C0110927B0188EE93E0A0E0B0E0F3
:1007D00080937D0190937E01A0937F01B09380016F
:1007E0002AE031E030937A012093790125EC30E062
:1007F000309386012093850124EC30E0309388010A
:100800002093870120EC30E030938A012093890106
:1008100021EC30E030938C0120938B0122EC30E00E
:1008200030938E0120938D0126EC30E030939001BF
:1008300020938F01109292011092930110929401D3
:100840001092950110921F0210921E0280932002B6
:1008500090932102A0932202B09323028CE191E0B5
:1008600090931D0280931C02109233021092320268
:100870001092350210923402109237021092360212
:10088000109239021092380260913A026E7F6D7FA9
:1008900060933A026695617081E0682782E00E9469
:1008A000940361E082E00E948D00E0EBF0E0E491CF
:1008B000E0932C02ECE9F0E0E491F0E0EE0FFF1F92
:1008C000E057FF4F8591949190932E0280932D02D3
:1008D00060E083E00E948D0080913A0281FD04C0B7
:1008E00061E083E00E94940383E080932802E1EBBF
:1008F000F0E0E491E0932902EDE9F0E0E491F0E02A
:10090000EE0FFF1FEA57FF4F8591949190932B02B2
:1009100080932A0210921702109216021092190266
:100920001092180210921B0210921A0261E070E0FD
:1009300090E080E00E947E070097E1F0909317021C
:1009400080931602109219021092180220911A0236
:1009500030911B02232B11F4FC01108210921B0218
:1009600010921A026AE271E08091160290911702C9
:100970000C9444088091160290911702009711F090
:100980000E94F506109217021092160210921B0296
:1009900010921A0210921902109218020895789477
:1009A00084B5826084BD84B5816084BD85B5826074
:1009B00085BD85B5816085BD80916E008160809325
:1009C0006E0010928100809181008260809381008E
:1009D000809181008160809381008091800081609E
:1009E000809380008091B10084608093B1008091F9
:1009F000B00081608093B00080917A008460809321
:100A00007A0080917A00826080937A0080917A00E7
:100A1000816080937A0080917A00806880937A0068
:100A20001092C10061E089E00E948D0061E08AE0DF
:100A30000E948D0061E08BE00E948D00E0918901B1
:100A4000F0918A0182E08083E0918501F091860136
:100A50001082E0918701F09188018FEC80831092E1
:100A60009101E0918D01F0918E0186E08083E0910B
:100A70008B01F0918C01808180618083E0918B01FA
:100A8000F0918C01808188608083E0918B01F091EE
:100A90008C01808180688083E0918B01F0918C01D2
:100AA00080818F7D808310923702109236021092DF
:100AB00035021092340210923302109232028DE904
:100AC00091E09093390280933802909128029631F8
:100AD00008F047C02DEB30E0309333022093320210
:100AE0002BE931E030933502209334022CE231E0DF
:100AF00030933702209336022091680084E09830CA
:100B000048F031E09E3008F430E081E001C0880F09
:100B10003A95EAF7822B809368002DE630E0983012
:100B200050F02BE630E09E3030F02CE630E096318D
:100B300010F030E020E03093300220932F02292F74
:100B400030E0983008F047C081E001C0880F9A95E6
:100B5000EAF780933102809138029091390201972F
:100B6000F1F78091360290913702892B49F1E0919B
:100B70006E01F0916F0182E0EC31F80709F13097D6
:100B800039F0A389B4899C918589809589238C93B8
:100B900080913A028E7F80933A0210926D011092FA
:100BA0006C018CE192E090936F0180936E01E09173
:100BB0002F02F0913002808190913102892B808345
:100BC000C0E0D0E02097F1F30E9428018823D1F300
:100BD0000E940000F7CF9E3040F42850310981E098
:100BE00001C0880F2A95EAF7B4CF2E503109F7CF0C
:100BF0008091160290911702009711F00E94F5065D
:100C00008CE191E090931D0280931C0280916E0113
:100C100090916F018C51924071F4E0912F02F0910C
:100C200030029081809131028095892380831092D7
:100C30006F0110926E0108952F923F924F925F9232
:100C40006F927F928F929F92AF92BF92CF92DF92DC
:100C5000EF92FF920F931F93CF93DF93CDB7DEB741
:100C6000CA1BDB0B0FB6F894DEBF0FBECDBF0994D5
:100C70002A88398848885F846E847D848C849B842C
:100C8000AA84B984C884DF80EE80FD800C811B813A
:100C9000AA81B981CE0FD11D0FB6F894DEBF0FBE69
:100CA000CDBFED010895EE0FFF1F0590F491E02DEB
:100CB00009940F931F93CF93DF938230910510F423
:100CC00082E090E0E0913D02F0913E0230E020E0D1
:100CD000B0E0A0E0309799F42115310509F44AC03D
:100CE000281B390B24303105D8F58A819B81611589
:100CF000710589F1FB0193838283FE0111C040815C
:100D000051810281138148175907E0F048175907AC
:100D100099F4109761F012960C93129713961C9306
:100D20003296CF01DF91CF911F910F9108950093DB
:100D30003D0210933E02F4CF2115310551F04217C8
:100D4000530738F0A901DB019A01BD01DF01F80169
:100D5000C1CFEF01F9CF90933E0280933D02CDCFFA
:100D6000FE01E20FF31F81939193225031093983E1
:100D70002883D7CF20913B0230913C02232B41F4B2
:100D8000209102013091030130933C0220933B02F9
:100D900020910001309101012115310541F42DB759
:100DA0003EB74091040150910501241B350BE091A1
:100DB0003B02F0913C02E217F307A0F42E1B3F0B1D
:100DC0002817390778F0AC014E5F5F4F24173507BD
:100DD00048F04E0F5F1F50933C0240933B028193BB
:100DE00091939FCFF0E0E0E09CCFCF93DF9300970B
:100DF000E9F0FC01329713821282A0913D02B0917A
:100E00003E02ED0130E020E01097A1F42081318115
:100E1000820F931F20913B0230913C022817390723
:100E200009F061C0F0933C02E0933B02DF91CF9167
:100E30000895EA01CE17DF07E8F54A815B819E013C
:100E400041155105B1F7E901FB83EA8349915991B5
:100E5000C40FD51FEC17FD0761F4808191810296C4
:100E6000840F951FE90199838883828193819B83F5
:100E70008A83F0E0E0E012968D919C9113970097A1
:100E8000B9F52D913C911197CD010296820F931FD8
:100E900020913B0230913C022817390739F63097F0
:100EA00051F510923E0210923D02B0933C02A09385
:100EB0003B02BCCFD383C28340815181840F951FF5
:100EC000C817D90761F44E5F5F4F88819981480F39
:100ED000591F518340838A819B819383828321158B
:100EE000310509F0B0CFF0933E02E0933D029ECF72
:100EF000FD01DC01C0CF13821282D7CFB0E0A0E0A9
:100F0000E4E8F7E00C941E068C01009751F4CB0145
:100F10000E9459068C01C801CDB7DEB7E0E10C9400
:100F20003A06FC01E60FF71F9C0122503109E21737
:100F3000F30708F49DC0D901CD91DC911197C61734
:100F4000D70798F0C530D10530F3CE010497861746
:100F5000970708F3C61BD70B2297C193D1936D93C4
:100F60007C93CF010E94F506D6CF5B01AC1ABD0A77
:100F70004C018C0E9D1EA0913D02B0913E02512C61
:100F8000412CF12CE12C109731F580913B0290918E
:100F90003C028815990509F05CC04616570608F012
:100FA00058C08091000190910101009741F48DB7E4
:100FB0009EB74091040150910501841B950BE817E1
:100FC000F90708F055C0F0933C02E0933B02F901A9
:100FD00071836083A0CF8D919C91119712966C9034
:100FE000129713967C901397A815B90559F56C01C3
:100FF00042E0C40ED11CCA14DB0420F1AC014A1932
:101000005B09DA011296159780F062827382518330
:101010004083D9016D937C93E114F10471F0D70101
:101020001396FC93EE93129776CF22968C0F9D1F0A
:10103000F90191838083F301EFCFF0933E02E093B7
:101040003D0269CF4816590608F42C017D01D301F1
:101050009ACFCB010E9459067C01009749F0AE015E
:10106000B8010E943B08C8010E94F506870153CFD2
:1010700010E000E050CFFB01DC0102C001900D92B6
:1010800041505040D8F70895FB01DC0101900D92CA
:101090000020E1F7089510E0C2E6D0E004C0FE01B0
:1010A0000E9453062196C336D107C9F7F894FFCFA3
:1010B00000003F028000000000005E01BE00EB0067
:1010C000AB011C01FA000E0100000000E401BE00AB
:0C10D0007702E30140025602CB01000051
:107E0000112484B714BE81FFF0D085E080938100F7
:107E100082E08093C00088E18093C10086E0809377
:107E2000C20080E18093C4008EE0C9D0259A86E02C
:107E300020E33CEF91E0309385002093840096BBD3
:107E4000B09BFECF1D9AA8958150A9F7CC24DD24C4
:107E500088248394B5E0AB2EA1E19A2EF3E0BF2EE7
:107E6000A2D0813461F49FD0082FAFD0023811F036
:107E7000013811F484E001C083E08DD089C08234E0
:107E800011F484E103C0853419F485E0A6D080C0E4
:107E9000853579F488D0E82EFF2485D0082F10E0AE
:107EA000102F00270E291F29000F111F8ED06801E7
:107EB0006FC0863521F484E090D080E0DECF843638
:107EC00009F040C070D06FD0082F6DD080E0C81688
:107ED00080E7D80618F4F601B7BEE895C0E0D1E017
:107EE00062D089930C17E1F7F0E0CF16F0E7DF06D8
:107EF00018F0F601B7BEE89568D007B600FCFDCFD4
:107F0000A601A0E0B1E02C9130E011968C91119780
:107F100090E0982F8827822B932B1296FA010C0160
:107F200087BEE89511244E5F5F4FF1E0A038BF0790
:107F300051F7F601A7BEE89507B600FCFDCF97BE46
:107F4000E89526C08437B1F42ED02DD0F82E2BD052
:107F50003CD0F601EF2C8F010F5F1F4F84911BD097
:107F6000EA94F801C1F70894C11CD11CFA94CF0C13
:107F7000D11C0EC0853739F428D08EE10CD085E9AC
:107F80000AD08FE07ACF813511F488E018D01DD067
:107F900080E101D065CF982F8091C00085FFFCCF94
:107FA0009093C60008958091C00087FFFCCF809118
:107FB000C00084FD01C0A8958091C6000895E0E648
:107FC000F0E098E1908380830895EDDF803219F02E
:107FD00088E0F5DFFFCF84E1DECF1F93182FE3DFCA
:107FE0001150E9F7F2DF1F91089580E0E8DFEE27F6
:047FF000FF270994CA
:027FFE00040479
:00000001FF
