:100000000C9463000C948B000C948B000C944704AC
:100010000C9447040C9447040C948B000C948B00B4
:100020000C948B000C948B000C948B000C948B0024
:100030000C948B000C948B000C948B000C948B0014
:100040000C94A5030C948B000C9415040C94EF03F2
:100050000C948B000C948B000C948B000C948B00F4
:100060000C948B000C948B000000000024002700EF
:100070002A0000000008000201000003040700003D
:1000800000000000000000000000230026002900FE
:1000900000000000250028002B00040404040404D0
:1000A0000404020202020202030303030303010227
:1000B00004081020408001020408102001020408F6
:1000C0001020BF04A20711241FBECFEFD8E0DEBF6F
:1000D000CDBF11E0A0E0B1E0EEE3F6E102C0059093
:1000E0000D92AE33B107D9F722E0AEE3B1E001C023
:1000F0001D92A135B207E1F710E0C2E6D0E004C0DE
:100100002197FE010E940009C136D107C9F70E945C
:100110006F050C94120B0C94000090E0FC01EE585B
:10012000FF4F2491FC01E255FF4F3491FC01E6564C
:10013000FF4FE491EE23C9F0222339F0233001F17F
:10014000A8F4213019F1223029F1F0E0EE0FFF1F61
:10015000E057FF4FA591B4918FB7F894EC916111DE
:1001600026C030953E233C938FBF08952730A9F0D9
:100170002830C9F0243049F7809180008F7D03C07A
:10018000809180008F7780938000DFCF84B58F7758
:1001900084BDDBCF84B58F7DFBCF8091B0008F779E
:1001A0008093B000D2CF8091B0008F7DF9CF3E2BED
:1001B000DACFCF93DF9390E0FC01E255FF4F24911B
:1001C00086569F4FFC0184918823D1F090E0880FE0
:1001D000991FFC01E859FF4FA591B491FC01E0572C
:1001E000FF4FC591D49161110EC09FB7F8948C91C7
:1001F000E22FE0958E238C932881E223E8839FBF32
:10020000DF91CF9108958FB7F894EC91E22BEC93A6
:100210008FBFF6CF3FB7F894809187019091880106
:10022000A0918901B0918A0126B5A89B05C02F3FF6
:1002300019F00196A11DB11D3FBFBA2FA92F982F0C
:100240008827BC01CD01620F711D811D911D42E007
:10025000660F771F881F991F4A95D1F708958F92CF
:100260009F92AF92BF92CF92DF92EF92FF924B019B
:100270005C010E940A016B017C010E940A016C1959
:100280007D098E099F09683E734081059105A8F399
:1002900021E0821A9108A108B10888EEC80E83E017
:1002A000D81EE11CF11C81149104A104B10429F7AA
:1002B000FF90EF90DF90CF90BF90AF909F908F9086
:1002C0000895AF92BF92CF92DF92EF92FF920F9379
:1002D0001F93CF93DF936C017B018B01040F151FDC
:1002E000EB015E01AE18BF08C017D10759F0699144
:1002F000D601ED91FC910190F081E02DC6010995A8
:10030000892B79F7C501DF91CF911F910F91FF9054
:10031000EF90DF90CF90BF90AF900895FC01538D88
:10032000448D252F30E0842F90E0821B930B5417CF
:1003300010F0CF96089501970895FC01918D828D5C
:10034000981761F0A28DAE0FBF2FB11D5D968C91F5
:10035000928D9F5F9F73928F90E008958FEF9FEF34
:100360000895FC01918D828D981731F0828DE80FF0
:10037000F11D858D90E008958FEF9FEF0895FC01AA
:10038000918D228D892F90E0805C9F4F821B910977
:100390008F73992708958BE891E00E94BF0121E0B7
:1003A000892B09F420E0822F089580E090E0892BCA
:1003B00029F00E94CB0181110C9400000895FC01EA
:1003C000A48DA80FB92FB11DA35ABF4F2C91848DB6
:1003D00090E001968F739927848FA689B7892C9313
:1003E000A089B1898C91837080648C93938D848D66
:1003F000981306C00288F389E02D80818F7D808369
:100400000895EF92FF920F931F93CF93DF93EC0128
:1004100081E0888F9B8D8C8D98131AC0E889F989AB
:10042000808185FF15C09FB7F894EE89FF896083AE
:10043000E889F98980818370806480839FBF81E02F
:1004400090E0DF91CF911F910F91FF90EF90089571
:10045000F62E0B8D10E00F5F1F4F0F731127E02E4C
:100460008C8D8E110CC00FB607FCFACFE889F98984
:10047000808185FFF5CFCE010E94DF01F1CFEB8DAA
:10048000EC0FFD2FF11DE35AFF4FF0829FB7F89458
:100490000B8FEA89FB8980818062CFCFCF93DF9376
:1004A000EC01888D8823B9F0AA89BB89E889F9898C
:1004B0008C9185FD03C0808186FD0DC00FB607FCC1
:1004C000F7CF8C9185FFF2CF808185FFEDCFCE01F4
:1004D0000E94DF01E9CFDF91CF9108952091800143
:1004E000309181012817390771F490917E01809134
:1004F0007F01981741F0E0917E01F0E0E25CFE4F51
:10050000808190E008958FEF9FEF08950895EF9216
:10051000FF920F931F93CF93DF93DC015C96ED90D6
:10052000FC905D97E114F10479F481E090E013967A
:100530009C938E93129790E080E0DF91CF911F9172
:100540000F91FF90EF9008955196ED91FC91529785
:1005500050968C915097982F90950FB75E962C914E
:100560005E97122F127021FD6095F894208111235F
:1005700019F1282B2083E7012197F1F728E0462F76
:1005800050E0308160FF1AC0382B3083E70121979B
:10059000F1F7BA0175956795215089F7112381F01C
:1005A0008081892380830FBF5C968D919C910197F8
:1005B000F1F781E090E0C1CF2923DCCF3923E5CFEB
:1005C0009081892BEFCF20918001309181012817F4
:1005D000390761F480917F0120917E0190E0805C79
:1005E0009F4F821B91098F739927089590E080E0B7
:1005F0000895209180013091810128173907B9F4BD
:1006000090917E0180917F01981789F0E0917E01A1
:10061000F0E0E25CFE4F808120917E0130E02F5FB0
:100620003F4F2F73332720937E0190E008958FEF83
:100630009FEF089590E080E00895CF93DF9320919D
:100640002C0230912D02232B89F0FC01C09128024D
:10065000D091290260817181CE010E94F80A009731
:1006600029F08C1B9D0BDF91CF9108958FEF9FEFA9
:10067000FACFFC0180819181009711F00C94A209BE
:1006800008950F931F93CF93DF93EC018881998195
:10069000009759F02A813B812617370730F081E017
:1006A000DF91CF911F910F9108958B016F5F7F4F65
:1006B0000E942B0A009759F0998388831B830A8331
:1006C0002C813D81232B59F7FC011082E8CF80E07B
:1006D000E7CFEF92FF920F931F93CF93DF93EC013D
:1006E0007B01198218821B821A821D821C82FB01E7
:1006F00001900020E9F731978F01061B170BB80115
:100700000E94410328813981811113C021153105CF
:1007100019F0C9010E94A209198218821D821C8247
:100720001B821A82DF91CF911F910F91FF90EF9062
:1007300008951D830C83B701C901DF91CF911F91EB
:100740000F91FF90EF900C94F10A1F920F920FB649
:100750000F9211242F933F938F939F93AF93BF9347
:100760008091830190918401A0918501B0918601CF
:100770003091820123E0230F2D3758F50196A11DFA
:10078000B11D209382018093830190938401A093F3
:100790008501B09386018091870190918801A09195
:1007A0008901B0918A010196A11DB11D8093870135
:1007B00090938801A0938901B0938A01BF91AF9172
:1007C0009F918F913F912F910F900FBE0F901F908F
:1007D000189526E8230F0296A11DB11DD2CF1F92B6
:1007E0000F920FB60F9211242F933F934F935F9365
:1007F0006F937F938F939F93AF93BF93EF93FF93E9
:100800008BE891E00E94DF01FF91EF91BF91AF91E2
:100810009F918F917F916F915F914F913F912F9118
:100820000F900FBE0F901F9018951F920F920FB64A
:100830000F9211242F938F939F93EF93FF93E09147
:100840009B01F0919C018081E091A101F091A201B6
:1008500082FD1BC090818091A4018F5F8F732091D6
:10086000A501821741F0E091A401F0E0E557FE4FA9
:10087000958F8093A401FF91EF919F918F912F917C
:100880000F900FBE0F901F9018958081F4CF1F928C
:100890000F920FB60F9211242F933F934F935F93B4
:1008A0006F937F938F939F93AF93BF93EF93FF9338
:1008B000E0918001F0918101309749F0A685B785DC
:1008C0008585968D91FF14C09C918923A1F4FF9199
:1008D000EF91BF91AF919F918F917F916F915F91B8
:1008E0004F913F912F910F900FBE0F901F90189531
:1008F0009C91892361F7A389B4899C91858980950E
:1009000089238C93868997890197F1F7608D718D82
:10091000A685B785558538E020E0CB010197F1F732
:10092000822F90E095958795282F4C91452309F0CB
:100930002068315091F7868D81FD209580917F014F
:1009400090E001968F73992730917E01381799F0C6
:10095000A0917F01B0E0A25CBE4F2C9380937F01F9
:10096000828D938D0197F1F7A389B4898C91958934
:10097000892B8C93ACCF868D8160868FF1CF1092BE
:100980008E0110928D0188EE93E0A0E0B0E080939C
:100990008F0190939001A0939101B09392012EE06A
:1009A00031E030938C0120938B0125EC30E03093C3
:1009B00098012093970124EC30E030939A01209322
:1009C000990120EC30E030939C0120939B0121ECB5
:1009D00030E030939E0120939D0122EC30E0309373
:1009E000A00120939F0126EC30E03093A2012093D8
:1009F000A1011092A4011092A5011092A6011092DB
:100A0000A70110923102109230028093320290932B
:100A10003302A0933402B093350280E291E09093C8
:100A20002F0280932E0210924502109244021092DF
:100A30004702109246021092490210924802109208
:100A40004B0210924A0260914C026E7F6D7F609360
:100A50004C026695617081E0682782E00E948D00FB
:100A600061E082E00E94D900E0EBF0E0E491E093E5
:100A70003E02ECE9F0E0E491F0E0EE0FFF1FE057FA
:100A8000FF4F859194919093400280933F0260E0E4
:100A900083E00E94D90080914C0281FD04C061E096
:100AA00083E00E948D0083E080933A02E1EBF0E066
:100AB000E491E0933B02EDE9F0E0E491F0E0EE0F29
:100AC000FF1FEA57FF4F8591949190933D028093C9
:100AD0003C026CE371E088E292E00C946903CF93EE
:100AE000DF9300D000D000D0CDB7DEB7789484B5C6
:100AF000826084BD84B5816084BD85B5826085BD1A
:100B000085B5816085BD80916E00816080936E00A7
:100B10001092810080918100826080938100809199
:100B2000810081608093810080918000816080934A
:100B300080008091B10084608093B1008091B0000A
:100B400081608093B00080917A00846080937A0005
:100B500080917A00826080937A0080917A0081602F
:100B600080937A0080917A00806880937A00109256
:100B7000C10061E089E00E94D90061E08AE00E9442
:100B8000D90061E08BE00E94D900E0919B01F091D7
:100B90009C0182E08083E0919701F091980110829E
:100BA000E0919901F0919A018FEC80831092A3015A
:100BB000E0919F01F091A00186E08083E0919D018A
:100BC000F0919E01808180618083E0919D01F09190
:100BD0009E01808188608083E0919D01F0919E015B
:100BE000808180688083E0919D01F0919E018081E9
:100BF0008F7D808310924902109248021092470222
:100C00001092460210924502109244028DE991E042
:100C100090934B0280934A0290913A02963108F0E9
:100C200047C02DEB30E030934502209344022BE97E
:100C300031E030934702209346022CE231E03093BA
:100C40004902209348022091680084E0983048F0DF
:100C500031E09E3008F430E081E001C0880F3A9521
:100C6000EAF7822B809368002DE630E0983050F050
:100C70002BE630E09E3030F02CE630E0963110F07C
:100C800030E020E03093420220934102292F30E0EF
:100C9000983008F079C081E001C0880F9A95EAF792
:100CA0008093430280914A0290914B020197F1F7A1
:100CB0008091480290914902892B49F1E09180018D
:100CC000F091810182E0EE32F80709F1309739F0B6
:100CD000A389B4899C918589809589238C9380917F
:100CE0004C028E7F80934C0210927F0110927E0105
:100CF0008EE292E09093810180938001E091410225
:100D0000F0914202808190914302892B808380E0A0
:100D1000E82E80E0F82E0E940E080E940E080E9425
:100D20000E088EE292E00E94E302892BD1F18EE25E
:100D300092E00E94F90289831A8200912C0210919C
:100D40002D020F5F1F4FB80188E292E00E9441031D
:100D5000882399F0209128023091290280912C0259
:100D600090912D02BE016F5F7F4F820F931F0E94F3
:100D7000F10A10932D0200932C0265E070E080E0F0
:100D800090E00E942F01CDCF9E3040F428503109D1
:100D900081E001C0880F2A95EAF782CF2E503109F1
:100DA000F7CF80912C0290912D02892B89F16EE270
:100DB00071E0CE0101960E946903CE0101960E9466
:100DC0001D038C01CE0101960E9439030F3F1F4F76
:100DD00009F448C061E08BE00E94D90061E08BE03B
:100DE0000E948D0061E08AE00E94D90060E08AE004
:100DF0000E948D0061E089E00E94D90060E089E0F6
:100E00000E948D0064E670E080E090E00E942F0177
:100E100070E060E088E292E00E94410320912802A5
:100E200030912902811184C02115310519F0C901C1
:100E30000E94A209109229021092280210922D02FB
:100E400010922C0210922B0210922A02E114F1044B
:100E500009F461CF0E94CB01882309F45CCF0E9482
:100E6000000059CF63E371E0CE0101960E9469034F
:100E7000CE0101960E941D038C01CE0101960E94B5
:100E800039030F3F1F4FB9F061E08AE00E94D9009B
:100E900061E08AE00E948D0061E089E00E94D90053
:100EA00060E089E00E948D0061E08BE00E94D90043
:100EB00060E08BE0A5CF69E371E0CE0101960E946E
:100EC0006903CE0101960E941D038C01CE0101969B
:100ED0000E94390361E00F3F1F4F71F089E00E94CB
:100EE000D90061E089E00E948D0061E08AE00E9403
:100EF000D90060E08AE0D6CF89E00E94D90060E0A6
:100F000089E00E948D0061E08AE00E94D90060E0E3
:100F10008AE00E948D0061E08BE00E94D90060E0D1
:100F20008BE00E948D0068EE73E080E090E06ECF71
:100F300010922D0210922C026CE371E0C9010E9404
:100F4000F10A84CF88E292E00E94390380E291E0C6
:100F500090932F0280932E028091800190918101C5
:100F60008E52924071F4E0914102F09142029081E0
:100F70008091430280958923808310928101109291
:100F8000800108958F929F92AF92BF92CF92DF928D
:100F9000EF92FF92CF93DF93EC01688179818A8190
:100FA0009B81611571058105910521F464E279ED5C
:100FB0008BE597E02DE133EF41E050E00E946608B9
:100FC00049015A019B01AC01A7EAB1E40E948508DE
:100FD0006B017C01ACEEB4EFA50194010E94930873
:100FE000C60ED71EE81EF91EF7FE06C081E0C81A1D
:100FF000D108E10880E8F80AC882D982EA82FB8237
:10100000C701B6019F77DF91CF91FF90EF90DF90FE
:10101000CF90BF90AF909F908F9008958F929F92A6
:10102000AF92BF92CF92DF92EF92FF926091000158
:101030007091010180910201909103016115710588
:101040008105910521F464E279ED8BE597E02DE1CE
:1010500033EF41E050E00E94660849015A019B01CC
:10106000AC01A7EAB1E40E9485086B017C01ACEEFB
:10107000B4EFA50194010E949308C60ED71EE81E86
:10108000F91EF7FE06C081E0C81AD108E10880E821
:10109000F80AC0920001D0920101E0920201F092A0
:1010A0000301C701B6019F77FF90EF90DF90CF90CB
:1010B000BF90AF909F908F900895609300017093C0
:1010C000010180930201909303010895052E97FB7F
:1010D0001EF400940E947D0857FD07D00E94CF089F
:1010E00007FC03D04EF40C947D0850954095309544
:1010F00021953F4F4F4F5F4F089590958095709584
:1011000061957F4F8F4F9F4F08950E94F108A59FD3
:10111000900DB49F900DA49F800D911D11240895F2
:10112000B7FF0C9485080E948508821B930B0895D5
:101130002F923F924F925F926F927F928F929F92E7
:10114000AF92BF92CF92DF92EF92FF920F931F93D5
:10115000CF93DF93CDB7DEB7CA1BDB0B0FB6F89486
:10116000DEBF0FBECDBF09942A88398848885F84C6
:101170006E847D848C849B84AA84B984C884DF8037
:10118000EE80FD800C811B81AA81B981CE0FD11D1B
:101190000FB6F894DEBF0FBECDBFED010895A1E2FA
:1011A0001A2EAA1BBB1BFD010DC0AA1FBB1FEE1FE1
:1011B000FF1FA217B307E407F50720F0A21BB30B2C
:1011C000E40BF50B661F771F881F991F1A9469F7A8
:1011D00060957095809590959B01AC01BD01CF0104
:1011E0000895A29FB001B39FC001A39F700D811D00
:1011F0001124911DB29F700D811D1124911D089520
:10120000EE0FFF1F0590F491E02D09940F931F93AB
:10121000CF93DF938230910510F482E090E0E0916B
:101220004F02F091500230E020E0B0E0A0E03097B3
:1012300099F42115310509F44AC0281B390B2430D3
:101240003105D8F58A819B816115710589F1FB0112
:1012500093838283FE0111C04081518102811381F9
:1012600048175907E0F04817590799F4109761F0AB
:1012700012960C93129713961C933296CF01DF911E
:10128000CF911F910F91089500934F021093500238
:10129000F4CF2115310551F04217530738F0A90159
:1012A000DB019A01BD01DF01F801C1CFEF01F9CFE8
:1012B0009093500280934F02CDCFFE01E20FF31FB7
:1012C000819391932250310939832883D7CF20917C
:1012D0004D0230914E02232B41F4209106013091B2
:1012E000070130934E0220934D022091040130916A
:1012F00005012115310541F42DB73EB74091080194
:1013000050910901241B350BE0914D02F0914E02E2
:10131000E217F307A0F42E1B3F0B2817390778F0CC
:10132000AC014E5F5F4F2417350748F04E0F5F1F2B
:1013300050934E0240934D02819391939FCFF0E0E2
:10134000E0E09CCFCF93DF930097E9F0FC01329768
:1013500013821282A0914F02B0915002ED0130E051
:1013600020E01097A1F420813181820F931F2091FA
:101370004D0230914E022817390709F061C0F093F1
:101380004E02E0934D02DF91CF910895EA01CE170E
:10139000DF07E8F54A815B819E0141155105B1F7F0
:1013A000E901FB83EA8349915991C40FD51FEC17DA
:1013B000FD0761F4808191810296840F951FE901F8
:1013C00099838883828193819B838A83F0E0E0E024
:1013D00012968D919C9113970097B9F52D913C91A0
:1013E0001197CD010296820F931F20914D023091EB
:1013F0004E022817390739F6309751F510925002EE
:1014000010924F02B0934E02A0934D02BCCFD383F3
:10141000C28340815181840F951FC817D90761F499
:101420004E5F5F4F88819981480F591F51834083D8
:101430008A819B81938382832115310509F0B0CF86
:10144000F0935002E0934F029ECFFD01DC01C0CF2C
:1014500013821282D7CFB0E0A0E0E1E3FAE00C946F
:101460009A088C01009751F4CB010E9406098C0167
:10147000C801CDB7DEB7E0E10C94B608FC01E60F79
:10148000F71F9C0122503109E217F30708F49DC0B1
:10149000D901CD91DC911197C617D70798F0C530C7
:1014A000D10530F3CE0104978617970708F3C61BC2
:1014B000D70B2297C193D1936D937C93CF010E9458
:1014C000A209D6CF5B01AC1ABD0A4C018C0E9D1E41
:1014D000A0914F02B0915002512C412CF12CE12CE3
:1014E000109731F580914D0290914E028815990523
:1014F00009F05CC04616570608F058C080910401F8
:1015000090910501009741F48DB79EB74091080175
:1015100050910901841B950BE817F90708F055C095
:10152000F0934E02E0934D02F90171836083A0CFE6
:101530008D919C91119712966C90129713967C90B6
:101540001397A815B90559F56C0142E0C40ED11CDA
:10155000CA14DB0420F1AC014A195B09DA011296C6
:10156000159780F06282738251834083D9016D9315
:101570007C93E114F10471F0D7011396FC93EE9380
:10158000129776CF22968C0F9D1FF901918380834D
:10159000F301EFCFF0935002E0934F0269CF48166A
:1015A000590608F42C017D01D3019ACFCB010E948A
:1015B00006097C01009749F0AE01B8010E94E80AD3
:1015C000C8010E94A209870153CF10E000E050CF6C
:1015D000FB01DC0102C001900D9241505040D8F750
:1015E0000895FB01DC0101900D920020E1F70895C0
:1015F000FB0151915523A9F0BF01DC014D91451725
:101600004111E1F759F4CD010190002049F04D91CD
:1016100040154111C9F3FB014111EFCF81E090E08A
:101620000197089510E0C2E6D0E004C0FE010E94D8
:0E16300000092196C336D107C9F7F894FFCF01
:10163E0001000000000051028000000000000102C5
:10164E0061018E014E02BF019D01B101000000003B
:10165E00870261011A038602E302F9026E02626CCE
:0E166E00756500677265656E00726564000048
:00000001FF
